{
  "contractName": "UploadContract",
  "abi": [
    {
      "constant": true,
      "inputs": [
        {
          "name": "",
          "type": "uint256"
        }
      ],
      "name": "idUploadObject",
      "outputs": [
        {
          "name": "customerAddress",
          "type": "address"
        },
        {
          "name": "ciphertext",
          "type": "string"
        },
        {
          "name": "capsuleId",
          "type": "string"
        }
      ],
      "payable": false,
      "stateMutability": "view",
      "type": "function"
    },
    {
      "constant": true,
      "inputs": [
        {
          "name": "",
          "type": "uint256"
        }
      ],
      "name": "idGrantObject",
      "outputs": [
        {
          "name": "policyId",
          "type": "string"
        },
        {
          "name": "capsuleId",
          "type": "string"
        },
        {
          "name": "signedPublicKey",
          "type": "string"
        },
        {
          "name": "pubKey",
          "type": "string"
        }
      ],
      "payable": false,
      "stateMutability": "view",
      "type": "function"
    },
    {
      "constant": false,
      "inputs": [
        {
          "name": "_from",
          "type": "address"
        },
        {
          "name": "ciphertext",
          "type": "string"
        },
        {
          "name": "capsuleId",
          "type": "string"
        }
      ],
      "name": "addDocument",
      "outputs": [
        {
          "name": "",
          "type": "uint256"
        }
      ],
      "payable": false,
      "stateMutability": "nonpayable",
      "type": "function"
    },
    {
      "constant": false,
      "inputs": [
        {
          "name": "policyId",
          "type": "string"
        },
        {
          "name": "capsuleId",
          "type": "string"
        },
        {
          "name": "signedPublicKey",
          "type": "string"
        },
        {
          "name": "pubKey",
          "type": "string"
        }
      ],
      "name": "addGrant",
      "outputs": [
        {
          "name": "",
          "type": "uint256"
        }
      ],
      "payable": false,
      "stateMutability": "nonpayable",
      "type": "function"
    },
    {
      "constant": true,
      "inputs": [
        {
          "name": "capsuleId",
          "type": "string"
        }
      ],
      "name": "getDocument",
      "outputs": [
        {
          "name": "",
          "type": "address"
        },
        {
          "name": "",
          "type": "string"
        },
        {
          "name": "",
          "type": "string"
        }
      ],
      "payable": false,
      "stateMutability": "view",
      "type": "function"
    },
    {
      "constant": true,
      "inputs": [
        {
          "name": "policyId",
          "type": "string"
        }
      ],
      "name": "getGrant",
      "outputs": [
        {
          "name": "",
          "type": "string"
        },
        {
          "name": "",
          "type": "string"
        },
        {
          "name": "",
          "type": "string"
        },
        {
          "name": "",
          "type": "string"
        }
      ],
      "payable": false,
      "stateMutability": "view",
      "type": "function"
    },
    {
      "constant": true,
      "inputs": [],
      "name": "getCurrentId",
      "outputs": [
        {
          "name": "",
          "type": "uint256"
        }
      ],
      "payable": false,
      "stateMutability": "view",
      "type": "function"
    },
    {
      "constant": true,
      "inputs": [],
      "name": "getGrantId",
      "outputs": [
        {
          "name": "",
          "type": "uint256"
        }
      ],
      "payable": false,
      "stateMutability": "view",
      "type": "function"
    }
  ],
  "bytecode": "0x608060405260016000556001805534801561001957600080fd5b50611729806100296000396000f30060806040526004361061008e576000357c0100000000000000000000000000000000000000000000000000000000900463ffffffff1680634765fce3146100935780634b4b745b146101d85780634b531c05146103c25780634dae231c146105e85780635c8fb3cf146107375780636c143862146107625780637ccb6a641461078d578063b687e3c21461090e575b600080fd5b34801561009f57600080fd5b506100be600480360381019080803590602001909291905050506109f1565b604051808473ffffffffffffffffffffffffffffffffffffffff1673ffffffffffffffffffffffffffffffffffffffff1681526020018060200180602001838103835285818151815260200191508051906020019080838360005b83811015610134578082015181840152602081019050610119565b50505050905090810190601f1680156101615780820380516001836020036101000a031916815260200191505b50838103825284818151815260200191508051906020019080838360005b8381101561019a57808201518184015260208101905061017f565b50505050905090810190601f1680156101c75780820380516001836020036101000a031916815260200191505b509550505050505060405180910390f35b3480156101e457600080fd5b5061020360048036038101908080359060200190929190505050610b6b565b6040518080602001806020018060200180602001858103855289818151815260200191508051906020019080838360005b8381101561024f578082015181840152602081019050610234565b50505050905090810190601f16801561027c5780820380516001836020036101000a031916815260200191505b50858103845288818151815260200191508051906020019080838360005b838110156102b557808201518184015260208101905061029a565b50505050905090810190601f1680156102e25780820380516001836020036101000a031916815260200191505b50858103835287818151815260200191508051906020019080838360005b8381101561031b578082015181840152602081019050610300565b50505050905090810190601f1680156103485780820380516001836020036101000a031916815260200191505b50858103825286818151815260200191508051906020019080838360005b83811015610381578082015181840152602081019050610366565b50505050905090810190601f1680156103ae5780820380516001836020036101000a031916815260200191505b509850505050505050505060405180910390f35b3480156103ce57600080fd5b50610429600480360381019080803590602001908201803590602001908080601f0160208091040260200160405190810160405280939291908181526020018383808284378201915050505050509192919290505050610dfb565b6040518080602001806020018060200180602001858103855289818151815260200191508051906020019080838360005b8381101561047557808201518184015260208101905061045a565b50505050905090810190601f1680156104a25780820380516001836020036101000a031916815260200191505b50858103845288818151815260200191508051906020019080838360005b838110156104db5780820151818401526020810190506104c0565b50505050905090810190601f1680156105085780820380516001836020036101000a031916815260200191505b50858103835287818151815260200191508051906020019080838360005b83811015610541578082015181840152602081019050610526565b50505050905090810190601f16801561056e5780820380516001836020036101000a031916815260200191505b50858103825286818151815260200191508051906020019080838360005b838110156105a757808201518184015260208101905061058c565b50505050905090810190601f1680156105d45780820380516001836020036101000a031916815260200191505b509850505050505050505060405180910390f35b3480156105f457600080fd5b50610721600480360381019080803590602001908201803590602001908080601f0160208091040260200160405190810160405280939291908181526020018383808284378201915050505050509192919290803590602001908201803590602001908080601f0160208091040260200160405190810160405280939291908181526020018383808284378201915050505050509192919290803590602001908201803590602001908080601f0160208091040260200160405190810160405280939291908181526020018383808284378201915050505050509192919290803590602001908201803590602001908080601f01602080910402602001604051908101604052809392919081815260200183838082843782019150505050505091929192905050506111ed565b6040518082815260200191505060405180910390f35b34801561074357600080fd5b5061074c6112bb565b6040518082815260200191505060405180910390f35b34801561076e57600080fd5b506107776112c5565b6040518082815260200191505060405180910390f35b34801561079957600080fd5b506107f4600480360381019080803590602001908201803590602001908080601f01602080910402602001604051908101604052809392919081815260200183838082843782019150505050505091929192905050506112ce565b604051808473ffffffffffffffffffffffffffffffffffffffff1673ffffffffffffffffffffffffffffffffffffffff1681526020018060200180602001838103835285818151815260200191508051906020019080838360005b8381101561086a57808201518184015260208101905061084f565b50505050905090810190601f1680156108975780820380516001836020036101000a031916815260200191505b50838103825284818151815260200191508051906020019080838360005b838110156108d05780820151818401526020810190506108b5565b50505050905090810190601f1680156108fd5780820380516001836020036101000a031916815260200191505b509550505050505060405180910390f35b34801561091a57600080fd5b506109db600480360381019080803573ffffffffffffffffffffffffffffffffffffffff169060200190929190803590602001908201803590602001908080601f0160208091040260200160405190810160405280939291908181526020018383808284378201915050505050509192919290803590602001908201803590602001908080601f0160208091040260200160405190810160405280939291908181526020018383808284378201915050505050509192919290505050611590565b6040518082815260200191505060405180910390f35b60026020528060005260406000206000915090508060000160009054906101000a900473ffffffffffffffffffffffffffffffffffffffff1690806001018054600181600116156101000203166002900480601f016020809104026020016040519081016040528092919081815260200182805460018160011615610100020316600290048015610ac35780601f10610a9857610100808354040283529160200191610ac3565b820191906000526020600020905b815481529060010190602001808311610aa657829003601f168201915b505050505090806002018054600181600116156101000203166002900480601f016020809104026020016040519081016040528092919081815260200182805460018160011615610100020316600290048015610b615780601f10610b3657610100808354040283529160200191610b61565b820191906000526020600020905b815481529060010190602001808311610b4457829003601f168201915b5050505050905083565b6003602052806000526040600020600091509050806000018054600181600116156101000203166002900480601f016020809104026020016040519081016040528092919081815260200182805460018160011615610100020316600290048015610c175780601f10610bec57610100808354040283529160200191610c17565b820191906000526020600020905b815481529060010190602001808311610bfa57829003601f168201915b505050505090806001018054600181600116156101000203166002900480601f016020809104026020016040519081016040528092919081815260200182805460018160011615610100020316600290048015610cb55780601f10610c8a57610100808354040283529160200191610cb5565b820191906000526020600020905b815481529060010190602001808311610c9857829003601f168201915b505050505090806002018054600181600116156101000203166002900480601f016020809104026020016040519081016040528092919081815260200182805460018160011615610100020316600290048015610d535780601f10610d2857610100808354040283529160200191610d53565b820191906000526020600020905b815481529060010190602001808311610d3657829003601f168201915b505050505090806003018054600181600116156101000203166002900480601f016020809104026020016040519081016040528092919081815260200182805460018160011615610100020316600290048015610df15780601f10610dc657610100808354040283529160200191610df1565b820191906000526020600020905b815481529060010190602001808311610dd457829003601f168201915b5050505050905084565b6060806060806000600190505b600054811115156111e457856040518082805190602001908083835b602083101515610e495780518252602082019150602081019050602083039250610e24565b6001836020036101000a038019825116818451168082178552505050505050905001915050604051809103902060001916600360008381526020019081526020016000206000016040518082805460018160011615610100020316600290048015610eeb5780601f10610ec9576101008083540402835291820191610eeb565b820191906000526020600020905b815481529060010190602001808311610ed7575b505091505060405180910390206000191614156111d75760036000828152602001908152602001600020600001600360008381526020019081526020016000206001016003600084815260200190815260200160002060020160036000858152602001908152602001600020600201838054600181600116156101000203166002900480601f016020809104026020016040519081016040528092919081815260200182805460018160011615610100020316600290048015610fef5780601f10610fc457610100808354040283529160200191610fef565b820191906000526020600020905b815481529060010190602001808311610fd257829003601f168201915b50505050509350828054600181600116156101000203166002900480601f01602080910402602001604051908101604052809291908181526020018280546001816001161561010002031660029004801561108b5780601f106110605761010080835404028352916020019161108b565b820191906000526020600020905b81548152906001019060200180831161106e57829003601f168201915b50505050509250818054600181600116156101000203166002900480601f0160208091040260200160405190810160405280929190818152602001828054600181600116156101000203166002900480156111275780601f106110fc57610100808354040283529160200191611127565b820191906000526020600020905b81548152906001019060200180831161110a57829003601f168201915b50505050509150808054600181600116156101000203166002900480601f0160208091040260200160405190810160405280929190818152602001828054600181600116156101000203166002900480156111c35780601f10611198576101008083540402835291602001916111c3565b820191906000526020600020905b8154815290600101906020018083116111a657829003601f168201915b5050505050905094509450945094506111e5565b8080600101915050610e08565b5b509193509193565b600084600360006001548152602001908152602001600020600001908051906020019061121b929190611658565b50836003600060015481526020019081526020016000206001019080519060200190611248929190611658565b50826003600060015481526020019081526020016000206002019080519060200190611275929190611658565b508160036000600154815260200190815260200160002060030190805190602001906112a2929190611658565b5060018054016001819055506001549050949350505050565b6000600154905090565b60008054905090565b60006060806000600190505b6000548111151561158757846040518082805190602001908083835b60208310151561131b57805182526020820191506020810190506020830392506112f6565b6001836020036101000a0380198251168184511680821785525050505050509050019150506040518091039020600019166002600083815260200190815260200160002060020160405180828054600181600116156101000203166002900480156113bd5780601f1061139b5761010080835404028352918201916113bd565b820191906000526020600020905b8154815290600101906020018083116113a9575b5050915050604051809103902060001916141561157a576002600082815260200190815260200160002060000160009054906101000a900473ffffffffffffffffffffffffffffffffffffffff166002600083815260200190815260200160002060010160026000848152602001908152602001600020600201818054600181600116156101000203166002900480601f0160208091040260200160405190810160405280929190818152602001828054600181600116156101000203166002900480156114cc5780601f106114a1576101008083540402835291602001916114cc565b820191906000526020600020905b8154815290600101906020018083116114af57829003601f168201915b50505050509150808054600181600116156101000203166002900480601f0160208091040260200160405190810160405280929190818152602001828054600181600116156101000203166002900480156115685780601f1061153d57610100808354040283529160200191611568565b820191906000526020600020905b81548152906001019060200180831161154b57829003601f168201915b50505050509050935093509350611588565b80806001019150506112da565b5b509193909250565b600083600260008054815260200190815260200160002060000160006101000a81548173ffffffffffffffffffffffffffffffffffffffff021916908373ffffffffffffffffffffffffffffffffffffffff1602179055508260026000805481526020019081526020016000206001019080519060200190611613929190611658565b50816002600080548152602001908152602001600020600201908051906020019061163f929190611658565b5060016000540160008190555060005490509392505050565b828054600181600116156101000203166002900490600052602060002090601f016020900481019282601f1061169957805160ff19168380011785556116c7565b828001600101855582156116c7579182015b828111156116c65782518255916020019190600101906116ab565b5b5090506116d491906116d8565b5090565b6116fa91905b808211156116f65760008160009055506001016116de565b5090565b905600a165627a7a72305820ce82a3db7b792b240463fcb29f6c8f43f4ab30436d240238dad86e6af3b08dac0029",
  "source": "pragma solidity ^0.4.17;\n\ncontract UploadContract {\n\n\t// current item id increments on every upload object\n\tuint currentId = 1;\n\tuint grantId = 1;\n\n\tstruct UploadObject {\n\t\t// this is the public address of the uploader\n\t\taddress customerAddress; \n\t\t// file hash that contains encypted data\n\t\tstring ciphertext;\n\t\t// capsule id \n\t\tstring capsuleId;\n\t}\n\n\tstruct GrantObject {\n\t\t// proxy re-encryption related data\n\t\tstring policyId;\n\t\tstring capsuleId;\n\t\tstring signedPublicKey;\n\t\tstring pubKey;\n\t}\n\n\t// user and their upload id\n\t// mapping (address => uint[]) public addressUploadID;\n\n\t// map between the id and its data\n\tmapping (uint => UploadObject) public idUploadObject;\n\tmapping (uint => GrantObject) public idGrantObject;\n\n\t// add new entry\n\tfunction addDocument(address _from, string ciphertext, string capsuleId) public returns(uint) {\n\t\tidUploadObject[currentId].customerAddress = _from;\n\t\tidUploadObject[currentId].ciphertext = ciphertext;\n\t\tidUploadObject[currentId].capsuleId = capsuleId;\n\n\t\tcurrentId = currentId + 1;\n\t\treturn currentId;\n\t}\n\n\tfunction addGrant(string policyId, string capsuleId, string signedPublicKey, string pubKey) public returns(uint) {\n\t\tidGrantObject[grantId].policyId = policyId;\n\t\tidGrantObject[grantId].capsuleId = capsuleId;\n\t\tidGrantObject[grantId].signedPublicKey = signedPublicKey;\n\t\tidGrantObject[grantId].pubKey = pubKey;\n\n\t\tgrantId = grantId + 1;\n\t\treturn grantId;\n\t}\n\n\t// get existing documents for an address\n\tfunction getDocument(string capsuleId) public constant returns(address, string, string) {\n\t\tfor (uint index = 1; index <= currentId; index++) {\n\t\t\tif(keccak256(idUploadObject[index].capsuleId) == keccak256(capsuleId)) {\n\t\t\t\treturn (idUploadObject[index].customerAddress, idUploadObject[index].ciphertext, idUploadObject[index].capsuleId);\n\t\t\t}\n\t\t}\n\t}\n\n\tfunction getGrant(string policyId) public constant returns(string, string, string, string) {\n\t\tfor (uint index = 1; index <= currentId; index++) {\n\t\t\tif(keccak256(idGrantObject[index].policyId) == keccak256(policyId)) {\n\t\t\t\treturn (idGrantObject[index].policyId, idGrantObject[index].capsuleId, idGrantObject[index].signedPublicKey, idGrantObject[index].signedPublicKey);\n\t\t\t}\n\t\t}\n\t}\n\n\tfunction getCurrentId() public constant returns(uint) {\n\t\treturn currentId;\n\t}\n\n\tfunction getGrantId() public constant returns(uint) {\n\t\treturn grantId;\n\t}\n}",
  "sourcePath": "/home/mcd-50/Documents/dna/Solidity/contracts/UploadContract.sol",
  "compiler": {
    "name": "solc",
    "version": "0.4.24+commit.e67f0147.Emscripten.clang"
  },
  "schemaVersion": "2.0.1",
  "updatedAt": "2019-03-30T13:30:58.809Z"
}